:1000000073C000009FC000009DC000009BC00000A6
:1000100099C0000097C0000095C0000093C0000088
:1000200091C000008FC000008DC000008BC0000098
:1000300089C0000087C0000085C0000083C00000A8
:1000400081C00000B3C000007DC000007BC0000084
:1000500079C0000077C0000075C0000073C00000C8
:1000600071C000006FC000006DC000006BC00000D8
:1000700069C0000067C0000065C0000063C00000E8
:1000800061C000005FC000005DC000005BC00000F8
:1000900059C0000057C0000055C0000053C0000008
:1000A00051C000004FC000004DC000004BC0000018
:1000B00049C0000047C0000045C0000043C0000028
:1000C00041C000003FC000003DC000003BC0000038
:1000D00039C0000037C0000035C0000033C0000048
:1000E00031C00000F800FE0011241FBECFEFD1E2A6
:1000F000DEBFCDBF00E00CBF12E0A0E0B2E0E6E260
:10010000F3E000E00BBF02C007900D92A830B107EA
:10011000D9F722E0A8E0B2E001C01D92AD30B207ED
:10012000E1F710E0C6EED0E000E005C0229701093B
:10013000FE010BBFE3D0C43ED10780E00807B1F752
:1001400013D0E0C05DCF249AE1E8F0E080818D60BB
:10015000808378948CE990E0909389008093880064
:1001600082E080936F000895279AEDDF88E092E0A7
:100170006BD088E092E079D061E0680F60930A026A
:1001800088E092E07CD06AE088E092E078D060E09D
:1001900072E088E092E07BD02FEF83EC99E0215071
:1001A00080409040E1F700C00000E3CF1F920F9223
:1001B0000FB60F9211248F939F9380910B02909111
:1001C0000C020196843691052CF490930C028093D6
:1001D0000B0207C010920C0210920B0285B18058DE
:1001E00085B99F918F910F900FBE0F901F9018951A
:1001F00060E875E288E092E005C0089588E092E04A
:100200005AC00895CF93DF93EC01CB01A0E0B0E09A
:10021000880F991FAA1FBB1F880F991FAA1FBB1FFA
:100220009C01AD01220F331F441F551F220F331FA6
:10023000441F551F60E074E284EF90E03DD02150F0
:100240002983DF91CF9108951092C500FC0181812F
:100250008093C400E1ECF0E0808188618083E2EC6F
:10026000F0E08081866080830895DC01E0ECF0E0BE
:1002700080818823ECF78091C6008C930895E0EC90
:10028000F0E0808185FFFDCF6093C60008950F9355
:100290001F93CF93DF938C01EB016881662331F0CC
:1002A0002196C801ECDF69916111FBCFDF91CF91FD
:1002B0001F910F9108950895A1E21A2EAA1BBB1B4E
:1002C000FD010DC0AA1FBB1FEE1FFF1FA217B30722
:1002D000E407F50720F0A21BB30BE40BF50B661F38
:1002E000771F881F991F1A9469F7609570958095FC
:1002F00090959B01AC01BD01CF0108950790F69147
:10030000E02D199410E0C6EED0E000E005C0229781
:100310000109FE010BBFF2DFC83ED10780E00807EC
:06032000B1F7F894FFCFD5
:0803260073303A3132300A0055
:00000001FF
