:1000000073C000009FC000009DC000009BC00000A6
:1000100099C0000097C0000095C0000093C0000088
:1000200091C000008FC000008DC000008BC0000098
:1000300089C0000087C0000085C0000083C00000A8
:1000400081C00000B7C000007DC000007BC0000080
:1000500079C0000077C0000075C0000073C00000C8
:1000600071C000006FC000006DC000006BC00000D8
:1000700069C0000067C0000065C0000063C00000E8
:1000800061C000005FC000005DC000005BC00000F8
:1000900059C0000057C0000055C0000053C0000008
:1000A00051C000004FC000004DC000004BC0000018
:1000B00049C0000047C0000045C0000043C0000028
:1000C00041C000003FC000003DC000003BC0000038
:1000D00039C0000037C0000035C0000033C0000048
:1000E00031C00000FC00020111241FBECFEFD1E29D
:1000F000DEBFCDBF00E00CBF12E0A0E0B2E0EEE852
:10010000F4E000E00BBF02C007900D92AA30B107E7
:10011000D9F722E0AAE0B2E001C01D92A831B207EF
:10012000E1F710E0C3E7D0E000E005C02197010946
:10013000802FFE0155D1C237D10780E00807B1F703
:1001400002D094C15DCF8AE092E082D08FE59AEE32
:100150000197F1F700C000002091080230910902D8
:1001600080910C0290910D02820F931F90930D02CB
:1001700080930C020197833B910538F031952195CE
:10018000310930930902209308028AE092E072D08C
:100190008823E1F260E072E08AE092E095D060911D
:1001A0000C0270910D0281E0A4D0BC018AE092E0C3
:1001B0008BD0CCCF1F920F920FB60F9211248F933A
:1001C0009F9380910E0290910F02019684369105C3
:1001D0002CF490930F0280930E0207C010920F022E
:1001E00010920E0285B1805885B99F918F910F9022
:1001F0000FBE0F901F90189560E875E28AE092E0BC
:1002000005C008958AE092E073C00895CF93DF930C
:10021000EC01CB01A0E0B0E0880F991FAA1FBB1F23
:10022000880F991FAA1FBB1F9C01AD01220F331F0E
:10023000441F551F220F331F441F551F60E074E2F7
:1002400084EF90E0ABD021502983DF91CF910895C6
:10025000FC01818190E09093C5008093C400E1ECA3
:10026000F0E0808188618083E2ECF0E0808186604C
:1002700080830895CF93DF93FC018091C000882391
:10028000ACF48091C00088239CF4C6ECD0E0A0ECD4
:10029000B0E0988190838FE39FE10197F1F700C070
:1002A00000009C919923ACF381E003C080E001C081
:1002B00081E0DF91CF910895E0ECF0E0808185FF4F
:1002C000FDCF6093C60008950F931F93CF93DF93E4
:1002D000EB016881662339F08C012196C801ECDFBF
:1002E00069916111FBCFDF91CF911F910F9108951B
:1002F00008950F931F93CF93DF9300D0CDB7DEB750
:100300009B01811120C000E112E083E590E3AAE3A4
:10031000B0E0F80180839183A283B3834AE0BE01F9
:100320006F5F7F4FC9016FD0BE016F5F7F4FC80104
:100330005FD0F80101900020E9F731978AE090E062
:100340009183808321C08130F9F400E112E083E5DC
:1003500091E3AAE3B0E0F80180839183A283B383A1
:100360004AE0BE016F5F7F4FC9014DD0BE016F5F94
:100370007F4FC8013DD0F80101900020E9F7319787
:100380008AE090E09183808380E192E00F900F906B
:100390000F90DF91CF911F910F910895A1E21A2E36
:1003A000AA1BBB1BFD010DC0AA1FBB1FEE1FFF1F19
:1003B000A217B307E407F50720F0A21BB30BE40B69
:1003C000F50B661F771F881F991F1A9469F76095B0
:1003D0007095809590959B01AC01BD01CF0108956A
:1003E000EE0FFF1F881F8BBF0790F691E02D199429
:1003F000FB01DC010D900020E9F7119701900D92AF
:100400000020E1F70895BB274A3031F4992322F404
:10041000BDE2909581959F4F01C0BB27FB015527F9
:10042000AA27880F991FAA1FA41710F0A41B839551
:100430005051B9F7A05DAA3308F0A95DA1930097C8
:1004400079F7B111B1931192CB0100C0DC01FC012D
:10045000672F71917723E1F7329704C07C916D93F8
:1004600070836291AE17BF07C8F3089510E0C3E729
:10047000D0E000E005C0802FFE01B2DF2196011D13
:0E048000C437D10780E00807B1F7F894FFCF2A
:0A048E00536572766F313A000100E9
:00000001FF
