:1000000073C000009FC000009DC000009BC00000A6
:1000100099C0000097C0000095C0000093C0000088
:1000200091C000008FC000008DC000008BC0000098
:1000300089C0000087C0000085C0000083C00000A8
:1000400081C00000B6C100007DC000007BC0000080
:1000500079C0000077C0000075C0000073C00000C8
:1000600071C000006FC000006DC000006BC00000D8
:1000700069C0000067C0000065C0000063C00000E8
:1000800061C000005FC000005DC000005BC00000F8
:1000900059C0000057C0000055C0000053C0000008
:1000A00051C000004FC000004DC000004BC0000018
:1000B00049C0000047C0000045C0000043C0000028
:1000C00041C000003FC000003DC000003BC0000038
:1000D00039C0000037C0000035C0000033C0000048
:1000E00031C00000FB01010211241FBECFEFD1E29D
:1000F000DEBFCDBF00E00CBF12E0A0E0B2E0EEEB4F
:10010000F4E000E00BBF02C007900D92A431B107EC
:10011000D9F722E0A4E1B2E001C01D92AC31B207F0
:10012000E1F710E0C6EED0E000E005C0229701093B
:10013000FE010BBFAFD1C43ED10780E00807B1F785
:10014000A6D0ACC15DCF139A8AE68A95F1F700C0BC
:100150001398089522B12F7022B922B1607F622BCB
:1001600062B9F1CF08951F93CF93DF93EC01162F5F
:10017000129AF0DF612F6295607FCE01EBDF85EF91
:100180008A95F1F70000DF91CF911F9108950F93A9
:100190001F93CF93DF938C01EB016881662331F0CD
:1001A0002196C801E0DF69916111FBCFDF91CF910A
:1001B0001F910F9108951F93CF93DF93EC01162F9A
:1001C0001298C8DF612F6295607FCE01C3DF80EE99
:1001D0008A95F1F7DF91CF911F91089561E0EBDFF0
:1001E0008FE39FE10197F1F700C0000008954130CF
:1001F00041F028F0423039F0433039F0089560582A
:1002000005C0605403C0605701C06053D4CF089547
:10021000CF93DF93EC010A9A0B9A0C9A0D9A0E9ADF
:100220000F9A8FE59AEE0197F1F700C0000060E3A6
:10023000CE0190DF8FE19EE40197F1F700C000004E
:10024000CE0181DF8FE99FE00197F1F700C0000048
:10025000CE0179DF8FE99FE00197F1F700C0000040
:1002600060E2CE0177DF8FE19EE40197F1F700C0F5
:10027000000068E2CE019FDF6CE0CE019CDF66E00B
:10028000CE0199DFCE01AADFDF91CF910895279AA1
:100290008091140290911502BBDF8091140290911D
:1002A00015029CDF40E060E08091140290911502FD
:1002B0009EDF2FEF81EE94E0215080409040E1F7E7
:1002C00000C000006FE072E080911402909115026E
:1002D0005EDF2FEF83ED90E3215080409040E1F707
:1002E00000C0000041E061E080911402909115028D
:1002F0007EDF2FEF81EE94E0215080409040E1F7C7
:1003000000C000006AE072E0809114029091150232
:100310003EDF2FEF83ED90E3215080409040E1F7E6
:1003200000C0000042E062E080911402909115024A
:100330005EDF2FEF81EE94E0215080409040E1F7A6
:1003400000C0000065E072E08091140290911502F7
:100350001EDF2FEF83ED90E3215080409040E1F7C6
:1003600000C0000043E063E0809114029091150208
:100370003EDF2FEF81EE94E0215080409040E1F786
:1003800000C0000060E072E08091140290911502BC
:10039000FEDE2FEF83ED90E3215080409040E1F7A7
:1003A00000C0000084E690E0909319028093180248
:1003B000FFCF1F920F920FB60F9211248F939F932E
:1003C00080911A0290911B020196843691052CF4BB
:1003D00090931B0280931A0207C010921B02109286
:1003E0001A0285B1805885B99F918F910F900FBEE9
:1003F0000F901F90189560E875E286E192E005C0C5
:10040000089586E192E023C00895CF93DF93EC0135
:10041000CB01A0E0B0E0880F991FAA1FBB1F880F77
:10042000991FAA1FBB1F9C01AD01220F331F441F40
:10043000551F220F331F441F551F60E074E284EFE5
:1004400090E006D021502983DF91CF91089508953F
:10045000A1E21A2EAA1BBB1BFD010DC0AA1FBB1FC8
:10046000EE1FFF1FA217B307E407F50720F0A21B3A
:10047000B30BE40BF50B661F771F881F991F1A94A7
:1004800069F760957095809590959B01AC01BD01D1
:10049000CF0108950790F691E02D199410E0C6EE73
:1004A000D0E000E005C022970109FE010BBFF2DF9A
:0E04B000C83ED10780E00807B1F7F894FFCFEF
:1004BE0078337933007832793200783179310078B7
:0404CE003079300051
:00000001FF
